{
  "_format": "hh-sol-artifact-1",
  "contractName": "Lethe",
  "sourceName": "contracts/token.sol",
  "abi": [
    {
      "inputs": [],
      "stateMutability": "nonpayable",
      "type": "constructor"
    },
    {
      "inputs": [],
      "name": "ECDSAInvalidSignature",
      "type": "error"
    },
    {
      "inputs": [
        {
          "internalType": "uint256",
          "name": "length",
          "type": "uint256"
        }
      ],
      "name": "ECDSAInvalidSignatureLength",
      "type": "error"
    },
    {
      "inputs": [
        {
          "internalType": "bytes32",
          "name": "s",
          "type": "bytes32"
        }
      ],
      "name": "ECDSAInvalidSignatureS",
      "type": "error"
    },
    {
      "inputs": [
        {
          "internalType": "address",
          "name": "spender",
          "type": "address"
        },
        {
          "internalType": "uint256",
          "name": "allowance",
          "type": "uint256"
        },
        {
          "internalType": "uint256",
          "name": "needed",
          "type": "uint256"
        }
      ],
      "name": "ERC20InsufficientAllowance",
      "type": "error"
    },
    {
      "inputs": [
        {
          "internalType": "address",
          "name": "sender",
          "type": "address"
        },
        {
          "internalType": "uint256",
          "name": "balance",
          "type": "uint256"
        },
        {
          "internalType": "uint256",
          "name": "needed",
          "type": "uint256"
        }
      ],
      "name": "ERC20InsufficientBalance",
      "type": "error"
    },
    {
      "inputs": [
        {
          "internalType": "address",
          "name": "approver",
          "type": "address"
        }
      ],
      "name": "ERC20InvalidApprover",
      "type": "error"
    },
    {
      "inputs": [
        {
          "internalType": "address",
          "name": "receiver",
          "type": "address"
        }
      ],
      "name": "ERC20InvalidReceiver",
      "type": "error"
    },
    {
      "inputs": [
        {
          "internalType": "address",
          "name": "sender",
          "type": "address"
        }
      ],
      "name": "ERC20InvalidSender",
      "type": "error"
    },
    {
      "inputs": [
        {
          "internalType": "address",
          "name": "spender",
          "type": "address"
        }
      ],
      "name": "ERC20InvalidSpender",
      "type": "error"
    },
    {
      "inputs": [
        {
          "internalType": "uint256",
          "name": "deadline",
          "type": "uint256"
        }
      ],
      "name": "ERC2612ExpiredSignature",
      "type": "error"
    },
    {
      "inputs": [
        {
          "internalType": "address",
          "name": "signer",
          "type": "address"
        },
        {
          "internalType": "address",
          "name": "owner",
          "type": "address"
        }
      ],
      "name": "ERC2612InvalidSigner",
      "type": "error"
    },
    {
      "inputs": [
        {
          "internalType": "address",
          "name": "account",
          "type": "address"
        },
        {
          "internalType": "uint256",
          "name": "currentNonce",
          "type": "uint256"
        }
      ],
      "name": "InvalidAccountNonce",
      "type": "error"
    },
    {
      "inputs": [],
      "name": "InvalidShortString",
      "type": "error"
    },
    {
      "inputs": [
        {
          "internalType": "address",
          "name": "owner",
          "type": "address"
        }
      ],
      "name": "OwnableInvalidOwner",
      "type": "error"
    },
    {
      "inputs": [
        {
          "internalType": "address",
          "name": "account",
          "type": "address"
        }
      ],
      "name": "OwnableUnauthorizedAccount",
      "type": "error"
    },
    {
      "inputs": [
        {
          "internalType": "string",
          "name": "str",
          "type": "string"
        }
      ],
      "name": "StringTooLong",
      "type": "error"
    },
    {
      "anonymous": false,
      "inputs": [
        {
          "indexed": true,
          "internalType": "address",
          "name": "account",
          "type": "address"
        }
      ],
      "name": "AddedToWhitelist",
      "type": "event"
    },
    {
      "anonymous": false,
      "inputs": [
        {
          "indexed": true,
          "internalType": "address",
          "name": "owner",
          "type": "address"
        },
        {
          "indexed": true,
          "internalType": "address",
          "name": "spender",
          "type": "address"
        },
        {
          "indexed": false,
          "internalType": "uint256",
          "name": "value",
          "type": "uint256"
        }
      ],
      "name": "Approval",
      "type": "event"
    },
    {
      "anonymous": false,
      "inputs": [],
      "name": "EIP712DomainChanged",
      "type": "event"
    },
    {
      "anonymous": false,
      "inputs": [
        {
          "indexed": true,
          "internalType": "address",
          "name": "previousOwner",
          "type": "address"
        },
        {
          "indexed": true,
          "internalType": "address",
          "name": "newOwner",
          "type": "address"
        }
      ],
      "name": "OwnershipTransferred",
      "type": "event"
    },
    {
      "anonymous": false,
      "inputs": [
        {
          "indexed": true,
          "internalType": "address",
          "name": "from",
          "type": "address"
        },
        {
          "indexed": true,
          "internalType": "address",
          "name": "to",
          "type": "address"
        },
        {
          "indexed": false,
          "internalType": "uint256",
          "name": "value",
          "type": "uint256"
        }
      ],
      "name": "Transfer",
      "type": "event"
    },
    {
      "anonymous": false,
      "inputs": [],
      "name": "TransfersEnabled",
      "type": "event"
    },
    {
      "inputs": [],
      "name": "DOMAIN_SEPARATOR",
      "outputs": [
        {
          "internalType": "bytes32",
          "name": "",
          "type": "bytes32"
        }
      ],
      "stateMutability": "view",
      "type": "function"
    },
    {
      "inputs": [
        {
          "internalType": "address",
          "name": "account",
          "type": "address"
        }
      ],
      "name": "addToWhitelist",
      "outputs": [],
      "stateMutability": "nonpayable",
      "type": "function"
    },
    {
      "inputs": [
        {
          "internalType": "address",
          "name": "owner",
          "type": "address"
        },
        {
          "internalType": "address",
          "name": "spender",
          "type": "address"
        }
      ],
      "name": "allowance",
      "outputs": [
        {
          "internalType": "uint256",
          "name": "",
          "type": "uint256"
        }
      ],
      "stateMutability": "view",
      "type": "function"
    },
    {
      "inputs": [
        {
          "internalType": "address",
          "name": "spender",
          "type": "address"
        },
        {
          "internalType": "uint256",
          "name": "value",
          "type": "uint256"
        }
      ],
      "name": "approve",
      "outputs": [
        {
          "internalType": "bool",
          "name": "",
          "type": "bool"
        }
      ],
      "stateMutability": "nonpayable",
      "type": "function"
    },
    {
      "inputs": [
        {
          "internalType": "address",
          "name": "account",
          "type": "address"
        }
      ],
      "name": "balanceOf",
      "outputs": [
        {
          "internalType": "uint256",
          "name": "",
          "type": "uint256"
        }
      ],
      "stateMutability": "view",
      "type": "function"
    },
    {
      "inputs": [
        {
          "internalType": "uint256",
          "name": "value",
          "type": "uint256"
        }
      ],
      "name": "burn",
      "outputs": [],
      "stateMutability": "nonpayable",
      "type": "function"
    },
    {
      "inputs": [
        {
          "internalType": "address",
          "name": "account",
          "type": "address"
        },
        {
          "internalType": "uint256",
          "name": "value",
          "type": "uint256"
        }
      ],
      "name": "burnFrom",
      "outputs": [],
      "stateMutability": "nonpayable",
      "type": "function"
    },
    {
      "inputs": [],
      "name": "decimals",
      "outputs": [
        {
          "internalType": "uint8",
          "name": "",
          "type": "uint8"
        }
      ],
      "stateMutability": "view",
      "type": "function"
    },
    {
      "inputs": [],
      "name": "eip712Domain",
      "outputs": [
        {
          "internalType": "bytes1",
          "name": "fields",
          "type": "bytes1"
        },
        {
          "internalType": "string",
          "name": "name",
          "type": "string"
        },
        {
          "internalType": "string",
          "name": "version",
          "type": "string"
        },
        {
          "internalType": "uint256",
          "name": "chainId",
          "type": "uint256"
        },
        {
          "internalType": "address",
          "name": "verifyingContract",
          "type": "address"
        },
        {
          "internalType": "bytes32",
          "name": "salt",
          "type": "bytes32"
        },
        {
          "internalType": "uint256[]",
          "name": "extensions",
          "type": "uint256[]"
        }
      ],
      "stateMutability": "view",
      "type": "function"
    },
    {
      "inputs": [
        {
          "internalType": "address",
          "name": "account",
          "type": "address"
        }
      ],
      "name": "isWhitelisted",
      "outputs": [
        {
          "internalType": "bool",
          "name": "",
          "type": "bool"
        }
      ],
      "stateMutability": "view",
      "type": "function"
    },
    {
      "inputs": [],
      "name": "makeTransferable",
      "outputs": [],
      "stateMutability": "nonpayable",
      "type": "function"
    },
    {
      "inputs": [],
      "name": "name",
      "outputs": [
        {
          "internalType": "string",
          "name": "",
          "type": "string"
        }
      ],
      "stateMutability": "view",
      "type": "function"
    },
    {
      "inputs": [
        {
          "internalType": "address",
          "name": "owner",
          "type": "address"
        }
      ],
      "name": "nonces",
      "outputs": [
        {
          "internalType": "uint256",
          "name": "",
          "type": "uint256"
        }
      ],
      "stateMutability": "view",
      "type": "function"
    },
    {
      "inputs": [],
      "name": "owner",
      "outputs": [
        {
          "internalType": "address",
          "name": "",
          "type": "address"
        }
      ],
      "stateMutability": "view",
      "type": "function"
    },
    {
      "inputs": [
        {
          "internalType": "address",
          "name": "owner",
          "type": "address"
        },
        {
          "internalType": "address",
          "name": "spender",
          "type": "address"
        },
        {
          "internalType": "uint256",
          "name": "value",
          "type": "uint256"
        },
        {
          "internalType": "uint256",
          "name": "deadline",
          "type": "uint256"
        },
        {
          "internalType": "uint8",
          "name": "v",
          "type": "uint8"
        },
        {
          "internalType": "bytes32",
          "name": "r",
          "type": "bytes32"
        },
        {
          "internalType": "bytes32",
          "name": "s",
          "type": "bytes32"
        }
      ],
      "name": "permit",
      "outputs": [],
      "stateMutability": "nonpayable",
      "type": "function"
    },
    {
      "inputs": [
        {
          "internalType": "address",
          "name": "account",
          "type": "address"
        }
      ],
      "name": "removeFromWhitelist",
      "outputs": [],
      "stateMutability": "nonpayable",
      "type": "function"
    },
    {
      "inputs": [],
      "name": "renounceOwnership",
      "outputs": [],
      "stateMutability": "nonpayable",
      "type": "function"
    },
    {
      "inputs": [],
      "name": "symbol",
      "outputs": [
        {
          "internalType": "string",
          "name": "",
          "type": "string"
        }
      ],
      "stateMutability": "view",
      "type": "function"
    },
    {
      "inputs": [],
      "name": "totalSupply",
      "outputs": [
        {
          "internalType": "uint256",
          "name": "",
          "type": "uint256"
        }
      ],
      "stateMutability": "view",
      "type": "function"
    },
    {
      "inputs": [
        {
          "internalType": "address",
          "name": "to",
          "type": "address"
        },
        {
          "internalType": "uint256",
          "name": "value",
          "type": "uint256"
        }
      ],
      "name": "transfer",
      "outputs": [
        {
          "internalType": "bool",
          "name": "",
          "type": "bool"
        }
      ],
      "stateMutability": "nonpayable",
      "type": "function"
    },
    {
      "inputs": [
        {
          "internalType": "address",
          "name": "from",
          "type": "address"
        },
        {
          "internalType": "address",
          "name": "to",
          "type": "address"
        },
        {
          "internalType": "uint256",
          "name": "value",
          "type": "uint256"
        }
      ],
      "name": "transferFrom",
      "outputs": [
        {
          "internalType": "bool",
          "name": "",
          "type": "bool"
        }
      ],
      "stateMutability": "nonpayable",
      "type": "function"
    },
    {
      "inputs": [
        {
          "internalType": "address",
          "name": "newOwner",
          "type": "address"
        }
      ],
      "name": "transferOwnership",
      "outputs": [],
      "stateMutability": "nonpayable",
      "type": "function"
    },
    {
      "inputs": [],
      "name": "transfersEnabled",
      "outputs": [
        {
          "internalType": "bool",
          "name": "",
          "type": "bool"
        }
      ],
      "stateMutability": "view",
      "type": "function"
    }
  ],
  "bytecode": "0x6101606040523480156200001257600080fd5b5033604051806040016040528060058152602001644c6574686560d81b81525080604051806040016040528060018152602001603160f81b815250604051806040016040528060058152602001644c6574686560d81b815250604051806040016040528060058152602001644c4554484560d81b81525081600390816200009a9190620005f9565b506004620000a98282620005f9565b50620000bb91508390506005620001c9565b61012052620000cc816006620001c9565b61014052815160208084019190912060e052815190820120610100524660a0526200015a60e05161010051604080517f8b73c3c69bb8fe3d512ecc4cf759cc79239f7b179b0ffacaa9a75d522b39400f60208201529081019290925260608201524660808201523060a082015260009060c00160405160208183030381529060405280519060200120905090565b60805250503060c052506001600160a01b0381166200019457604051631e4fbdf760e01b8152600060048201526024015b60405180910390fd5b6200019f8162000202565b50620001b8336b023ac12ef364587bf200000062000254565b620001c33362000292565b6200075d565b6000602083511015620001e957620001e183620002ed565b9050620001fc565b81620001f68482620005f9565b5060ff90505b92915050565b600880546001600160a01b038381166001600160a01b0319831681179093556040519116919082907f8be0079c531659141344cd1fd0a4f28419497f9722a3daafe3b4186f6b6457e090600090a35050565b6001600160a01b038216620002805760405163ec442f0560e01b8152600060048201526024016200018b565b6200028e6000838362000330565b5050565b600881901c6001600160981b03166000908152600960205260408082208054600160ff86161b179055516001600160a01b038316917fa850ae9193f515cbae8d35e8925bd2be26627fc91bce650b8652ed254e9cab0391a250565b600080829050601f815111156200031b578260405163305a27a960e01b81526004016200018b9190620006c5565b8051620003288262000716565b179392505050565b600a5460ff16620003e1576001600160a01b03831615806200035957506001600160a01b038216155b806200036b57506200036b83620003f3565b806200037d57506200037d82620003f3565b620003e15760405162461bcd60e51b815260206004820152602d60248201527f5472616e73666572206e6f7420616c6c6f7765643a2061646472657373206e6f60448201526c1d081dda1a5d195b1a5cdd1959609a1b60648201526084016200018b565b620003ee83838362000420565b505050565b6001600160981b03600882901c16600090815260096020526040812054600160ff84161b161515620001fc565b6001600160a01b0383166200044f5780600260008282546200044391906200073b565b90915550620004c39050565b6001600160a01b03831660009081526020819052604090205481811015620004a45760405163391434e360e21b81526001600160a01b038516600482015260248101829052604481018390526064016200018b565b6001600160a01b03841660009081526020819052604090209082900390555b6001600160a01b038216620004e15760028054829003905562000500565b6001600160a01b03821660009081526020819052604090208054820190555b816001600160a01b0316836001600160a01b03167fddf252ad1be2c89b69c2b068fc378daa952ba7f163c4a11628f55a4df523b3ef836040516200054691815260200190565b60405180910390a3505050565b634e487b7160e01b600052604160045260246000fd5b600181811c908216806200057e57607f821691505b6020821081036200059f57634e487b7160e01b600052602260045260246000fd5b50919050565b601f821115620003ee576000816000526020600020601f850160051c81016020861015620005d05750805b601f850160051c820191505b81811015620005f157828155600101620005dc565b505050505050565b81516001600160401b0381111562000615576200061562000553565b6200062d8162000626845462000569565b84620005a5565b602080601f8311600181146200066557600084156200064c5750858301515b600019600386901b1c1916600185901b178555620005f1565b600085815260208120601f198616915b82811015620006965788860151825594840194600190910190840162000675565b5085821015620006b55787850151600019600388901b60f8161c191681555b5050505050600190811b01905550565b60006020808352835180602085015260005b81811015620006f557858101830151858201604001528201620006d7565b506000604082860101526040601f19601f8301168501019250505092915050565b805160208083015191908110156200059f5760001960209190910360031b1b16919050565b80820180821115620001fc57634e487b7160e01b600052601160045260246000fd5b60805160a05160c05160e051610100516101205161014051611377620007b86000396000610a5401526000610a270152600061091a015260006108f20152600061084d01526000610877015260006108a101526113776000f3fe608060405234801561001057600080fd5b506004361061014d5760003560e01c806379cc6790116100c3578063a9059cbb1161007c578063a9059cbb146102a7578063bef97c87146102ba578063d505accf146102c7578063dd62ed3e146102da578063e43252d714610313578063f2fde38b1461032657600080fd5b806379cc6790146102305780637ecebe001461024357806384b0196e146102565780638ab1d681146102715780638da5cb5b1461028457806395d89b411461029f57600080fd5b80633644e515116101155780633644e515146101c75780633af32abf146101cf57806342966c68146101e2578063696fd68c146101f757806370a08231146101ff578063715018a61461022857600080fd5b806306fdde0314610152578063095ea7b31461017057806318160ddd1461019357806323b872dd146101a5578063313ce567146101b8575b600080fd5b61015a610339565b60405161016791906110c1565b60405180910390f35b61018361017e3660046110f7565b6103cb565b6040519015158152602001610167565b6002545b604051908152602001610167565b6101836101b3366004611121565b6103e5565b60405160128152602001610167565b610197610409565b6101836101dd36600461115d565b610418565b6101f56101f0366004611178565b610444565b005b6101f5610451565b61019761020d36600461115d565b6001600160a01b031660009081526020819052604090205490565b6101f56104e9565b6101f561023e3660046110f7565b6104fd565b61019761025136600461115d565b610516565b61025e610534565b6040516101679796959493929190611191565b6101f561027f36600461115d565b61057a565b6008546040516001600160a01b039091168152602001610167565b61015a6105ae565b6101836102b53660046110f7565b6105bd565b600a546101839060ff1681565b6101f56102d536600461122a565b6105cb565b6101976102e836600461129d565b6001600160a01b03918216600090815260016020908152604080832093909416825291909152205490565b6101f561032136600461115d565b610705565b6101f561033436600461115d565b610716565b606060038054610348906112d0565b80601f0160208091040260200160405190810160405280929190818152602001828054610374906112d0565b80156103c15780601f10610396576101008083540402835291602001916103c1565b820191906000526020600020905b8154815290600101906020018083116103a457829003601f168201915b5050505050905090565b6000336103d9818585610751565b60019150505b92915050565b6000336103f3858285610763565b6103fe8585856107e1565b506001949350505050565b6000610413610840565b905090565b6001600160981b03600882901c16600090815260096020526040812054600160ff84161b1615156103df565b61044e338261096b565b50565b6104596109a1565b600a5460ff16156104b15760405162461bcd60e51b815260206004820152601d60248201527f5472616e73666572732061726520616c726561647920656e61626c656400000060448201526064015b60405180910390fd5b600a805460ff191660011790556040517feadb24812ab3c9a55c774958184293ebdb6c7f6a2dbab11f397d80c86feb65d390600090a1565b6104f16109a1565b6104fb60006109ce565b565b610508823383610763565b610512828261096b565b5050565b6001600160a01b0381166000908152600760205260408120546103df565b600060608060008060006060610548610a20565b610550610a4d565b60408051600080825260208201909252600f60f81b9b939a50919850469750309650945092509050565b6105826109a1565b6001600160981b03600882901c1660009081526009602052604090208054600160ff84161b1916905550565b606060048054610348906112d0565b6000336103d98185856107e1565b834211156105ef5760405163313c898160e11b8152600481018590526024016104a8565b60007f6e71edae12b1b97f4d1f60370fef10105fa2faae0126114a169c64845d6126c988888861063c8c6001600160a01b0316600090815260076020526040902080546001810190915590565b6040805160208101969096526001600160a01b0394851690860152929091166060840152608083015260a082015260c0810186905260e001604051602081830303815290604052805190602001209050600061069782610a7a565b905060006106a782878787610aa7565b9050896001600160a01b0316816001600160a01b0316146106ee576040516325c0072360e11b81526001600160a01b0380831660048301528b1660248201526044016104a8565b6106f98a8a8a610751565b50505050505050505050565b61070d6109a1565b61044e81610ad5565b61071e6109a1565b6001600160a01b03811661074857604051631e4fbdf760e01b8152600060048201526024016104a8565b61044e816109ce565b61075e8383836001610b30565b505050565b6001600160a01b0383811660009081526001602090815260408083209386168352929052205460001981146107db57818110156107cc57604051637dc7a0d960e11b81526001600160a01b038416600482015260248101829052604481018390526064016104a8565b6107db84848484036000610b30565b50505050565b6001600160a01b03831661080b57604051634b637e8f60e11b8152600060048201526024016104a8565b6001600160a01b0382166108355760405163ec442f0560e01b8152600060048201526024016104a8565b61075e838383610c05565b6000306001600160a01b037f00000000000000000000000000000000000000000000000000000000000000001614801561089957507f000000000000000000000000000000000000000000000000000000000000000046145b156108c357507f000000000000000000000000000000000000000000000000000000000000000090565b610413604080517f8b73c3c69bb8fe3d512ecc4cf759cc79239f7b179b0ffacaa9a75d522b39400f60208201527f0000000000000000000000000000000000000000000000000000000000000000918101919091527f000000000000000000000000000000000000000000000000000000000000000060608201524660808201523060a082015260009060c00160405160208183030381529060405280519060200120905090565b6001600160a01b03821661099557604051634b637e8f60e11b8152600060048201526024016104a8565b61051282600083610c05565b6008546001600160a01b031633146104fb5760405163118cdaa760e01b81523360048201526024016104a8565b600880546001600160a01b038381166001600160a01b0319831681179093556040519116919082907f8be0079c531659141344cd1fd0a4f28419497f9722a3daafe3b4186f6b6457e090600090a35050565b60606104137f00000000000000000000000000000000000000000000000000000000000000006005610cb7565b60606104137f00000000000000000000000000000000000000000000000000000000000000006006610cb7565b60006103df610a87610840565b8360405161190160f01b8152600281019290925260228201526042902090565b600080600080610ab988888888610d62565b925092509250610ac98282610e31565b50909695505050505050565b600881901c6001600160981b03166000908152600960205260408082208054600160ff86161b179055516001600160a01b038316917fa850ae9193f515cbae8d35e8925bd2be26627fc91bce650b8652ed254e9cab0391a250565b6001600160a01b038416610b5a5760405163e602df0560e01b8152600060048201526024016104a8565b6001600160a01b038316610b8457604051634a1406b160e11b8152600060048201526024016104a8565b6001600160a01b03808516600090815260016020908152604080832093871683529290522082905580156107db57826001600160a01b0316846001600160a01b03167f8c5be1e5ebec7d5bd14f71427d1e84f3dd0314c0f7b2291e5b200ac8c7c3b92584604051610bf791815260200190565b60405180910390a350505050565b600a5460ff16610cac576001600160a01b0383161580610c2c57506001600160a01b038216155b80610c3b5750610c3b83610418565b80610c4a5750610c4a82610418565b610cac5760405162461bcd60e51b815260206004820152602d60248201527f5472616e73666572206e6f7420616c6c6f7765643a2061646472657373206e6f60448201526c1d081dda1a5d195b1a5cdd1959609a1b60648201526084016104a8565b61075e838383610eea565b606060ff8314610cd157610cca83611014565b90506103df565b818054610cdd906112d0565b80601f0160208091040260200160405190810160405280929190818152602001828054610d09906112d0565b8015610d565780601f10610d2b57610100808354040283529160200191610d56565b820191906000526020600020905b815481529060010190602001808311610d3957829003601f168201915b505050505090506103df565b600080807f7fffffffffffffffffffffffffffffff5d576e7357a4501ddfe92f46681b20a0841115610d9d5750600091506003905082610e27565b604080516000808252602082018084528a905260ff891692820192909252606081018790526080810186905260019060a0016020604051602081039080840390855afa158015610df1573d6000803e3d6000fd5b5050604051601f1901519150506001600160a01b038116610e1d57506000925060019150829050610e27565b9250600091508190505b9450945094915050565b6000826003811115610e4557610e4561130a565b03610e4e575050565b6001826003811115610e6257610e6261130a565b03610e805760405163f645eedf60e01b815260040160405180910390fd5b6002826003811115610e9457610e9461130a565b03610eb55760405163fce698f760e01b8152600481018290526024016104a8565b6003826003811115610ec957610ec961130a565b03610512576040516335e2f38360e21b8152600481018290526024016104a8565b6001600160a01b038316610f15578060026000828254610f0a9190611320565b90915550610f879050565b6001600160a01b03831660009081526020819052604090205481811015610f685760405163391434e360e21b81526001600160a01b038516600482015260248101829052604481018390526064016104a8565b6001600160a01b03841660009081526020819052604090209082900390555b6001600160a01b038216610fa357600280548290039055610fc2565b6001600160a01b03821660009081526020819052604090208054820190555b816001600160a01b0316836001600160a01b03167fddf252ad1be2c89b69c2b068fc378daa952ba7f163c4a11628f55a4df523b3ef8360405161100791815260200190565b60405180910390a3505050565b6060600061102183611053565b604080516020808252818301909252919250600091906020820181803683375050509182525060208101929092525090565b600060ff8216601f8111156103df57604051632cd44ac360e21b815260040160405180910390fd5b6000815180845260005b818110156110a157602081850181015186830182015201611085565b506000602082860101526020601f19601f83011685010191505092915050565b6020815260006110d4602083018461107b565b9392505050565b80356001600160a01b03811681146110f257600080fd5b919050565b6000806040838503121561110a57600080fd5b611113836110db565b946020939093013593505050565b60008060006060848603121561113657600080fd5b61113f846110db565b925061114d602085016110db565b9150604084013590509250925092565b60006020828403121561116f57600080fd5b6110d4826110db565b60006020828403121561118a57600080fd5b5035919050565b60ff60f81b881681526000602060e060208401526111b260e084018a61107b565b83810360408501526111c4818a61107b565b606085018990526001600160a01b038816608086015260a0850187905284810360c08601528551808252602080880193509091019060005b81811015611218578351835292840192918401916001016111fc565b50909c9b505050505050505050505050565b600080600080600080600060e0888a03121561124557600080fd5b61124e886110db565b965061125c602089016110db565b95506040880135945060608801359350608088013560ff8116811461128057600080fd5b9699959850939692959460a0840135945060c09093013592915050565b600080604083850312156112b057600080fd5b6112b9836110db565b91506112c7602084016110db565b90509250929050565b600181811c908216806112e457607f821691505b60208210810361130457634e487b7160e01b600052602260045260246000fd5b50919050565b634e487b7160e01b600052602160045260246000fd5b808201808211156103df57634e487b7160e01b600052601160045260246000fdfea264697066735822122099521eca19045f52480603e794876217878920210d8b1afd3424aa6b959634e964736f6c63430008180033",
  "linkReferences": {},
  "deployedLinkReferences": {}
}