{
  "_format": "hh-sol-artifact-1",
  "contractName": "Vesting",
  "sourceName": "contracts/vesting.sol",
  "abi": [
    {
      "inputs": [
        {
          "internalType": "address",
          "name": "teamAdmin",
          "type": "address"
        },
        {
          "internalType": "address",
          "name": "beneficiary_",
          "type": "address"
        },
        {
          "internalType": "uint64",
          "name": "startTimestamp",
          "type": "uint64"
        },
        {
          "internalType": "uint64",
          "name": "durationSeconds",
          "type": "uint64"
        }
      ],
      "stateMutability": "nonpayable",
      "type": "constructor"
    },
    {
      "inputs": [
        {
          "internalType": "address",
          "name": "target",
          "type": "address"
        }
      ],
      "name": "AddressEmptyCode",
      "type": "error"
    },
    {
      "inputs": [
        {
          "internalType": "address",
          "name": "account",
          "type": "address"
        }
      ],
      "name": "AddressInsufficientBalance",
      "type": "error"
    },
    {
      "inputs": [],
      "name": "FailedInnerCall",
      "type": "error"
    },
    {
      "inputs": [
        {
          "internalType": "address",
          "name": "owner",
          "type": "address"
        }
      ],
      "name": "OwnableInvalidOwner",
      "type": "error"
    },
    {
      "inputs": [
        {
          "internalType": "address",
          "name": "account",
          "type": "address"
        }
      ],
      "name": "OwnableUnauthorizedAccount",
      "type": "error"
    },
    {
      "inputs": [
        {
          "internalType": "address",
          "name": "token",
          "type": "address"
        }
      ],
      "name": "SafeERC20FailedOperation",
      "type": "error"
    },
    {
      "anonymous": false,
      "inputs": [
        {
          "indexed": true,
          "internalType": "address",
          "name": "oldBeneficiary",
          "type": "address"
        },
        {
          "indexed": true,
          "internalType": "address",
          "name": "newBeneficiary",
          "type": "address"
        }
      ],
      "name": "BeneficiaryUpdated",
      "type": "event"
    },
    {
      "anonymous": false,
      "inputs": [
        {
          "indexed": true,
          "internalType": "address",
          "name": "token",
          "type": "address"
        },
        {
          "indexed": false,
          "internalType": "uint256",
          "name": "amount",
          "type": "uint256"
        }
      ],
      "name": "ERC20Released",
      "type": "event"
    },
    {
      "anonymous": false,
      "inputs": [
        {
          "indexed": true,
          "internalType": "address",
          "name": "token",
          "type": "address"
        },
        {
          "indexed": false,
          "internalType": "uint256",
          "name": "amount",
          "type": "uint256"
        }
      ],
      "name": "EmergencyWithdraw",
      "type": "event"
    },
    {
      "anonymous": false,
      "inputs": [
        {
          "indexed": false,
          "internalType": "uint256",
          "name": "amount",
          "type": "uint256"
        }
      ],
      "name": "EtherReleased",
      "type": "event"
    },
    {
      "anonymous": false,
      "inputs": [
        {
          "indexed": true,
          "internalType": "address",
          "name": "previousOwner",
          "type": "address"
        },
        {
          "indexed": true,
          "internalType": "address",
          "name": "newOwner",
          "type": "address"
        }
      ],
      "name": "OwnershipTransferred",
      "type": "event"
    },
    {
      "anonymous": false,
      "inputs": [
        {
          "indexed": true,
          "internalType": "address",
          "name": "token",
          "type": "address"
        },
        {
          "indexed": false,
          "internalType": "uint256",
          "name": "amount",
          "type": "uint256"
        }
      ],
      "name": "TokensLocked",
      "type": "event"
    },
    {
      "anonymous": false,
      "inputs": [
        {
          "indexed": false,
          "internalType": "uint64",
          "name": "start",
          "type": "uint64"
        },
        {
          "indexed": false,
          "internalType": "uint64",
          "name": "duration",
          "type": "uint64"
        }
      ],
      "name": "VestingScheduleSet",
      "type": "event"
    },
    {
      "inputs": [],
      "name": "beneficiary",
      "outputs": [
        {
          "internalType": "address",
          "name": "",
          "type": "address"
        }
      ],
      "stateMutability": "view",
      "type": "function"
    },
    {
      "inputs": [],
      "name": "duration",
      "outputs": [
        {
          "internalType": "uint256",
          "name": "",
          "type": "uint256"
        }
      ],
      "stateMutability": "view",
      "type": "function"
    },
    {
      "inputs": [
        {
          "internalType": "address",
          "name": "token",
          "type": "address"
        }
      ],
      "name": "emergencyWithdraw",
      "outputs": [],
      "stateMutability": "nonpayable",
      "type": "function"
    },
    {
      "inputs": [],
      "name": "end",
      "outputs": [
        {
          "internalType": "uint256",
          "name": "",
          "type": "uint256"
        }
      ],
      "stateMutability": "view",
      "type": "function"
    },
    {
      "inputs": [],
      "name": "hasEnded",
      "outputs": [
        {
          "internalType": "bool",
          "name": "",
          "type": "bool"
        }
      ],
      "stateMutability": "view",
      "type": "function"
    },
    {
      "inputs": [],
      "name": "hasStarted",
      "outputs": [
        {
          "internalType": "bool",
          "name": "",
          "type": "bool"
        }
      ],
      "stateMutability": "view",
      "type": "function"
    },
    {
      "inputs": [
        {
          "internalType": "address",
          "name": "token",
          "type": "address"
        },
        {
          "internalType": "uint256",
          "name": "amount",
          "type": "uint256"
        }
      ],
      "name": "lockTokens",
      "outputs": [],
      "stateMutability": "nonpayable",
      "type": "function"
    },
    {
      "inputs": [],
      "name": "owner",
      "outputs": [
        {
          "internalType": "address",
          "name": "",
          "type": "address"
        }
      ],
      "stateMutability": "view",
      "type": "function"
    },
    {
      "inputs": [
        {
          "internalType": "address",
          "name": "token",
          "type": "address"
        }
      ],
      "name": "releasable",
      "outputs": [
        {
          "internalType": "uint256",
          "name": "",
          "type": "uint256"
        }
      ],
      "stateMutability": "view",
      "type": "function"
    },
    {
      "inputs": [],
      "name": "releasable",
      "outputs": [
        {
          "internalType": "uint256",
          "name": "",
          "type": "uint256"
        }
      ],
      "stateMutability": "view",
      "type": "function"
    },
    {
      "inputs": [
        {
          "internalType": "address",
          "name": "token",
          "type": "address"
        }
      ],
      "name": "release",
      "outputs": [],
      "stateMutability": "nonpayable",
      "type": "function"
    },
    {
      "inputs": [],
      "name": "release",
      "outputs": [],
      "stateMutability": "nonpayable",
      "type": "function"
    },
    {
      "inputs": [],
      "name": "released",
      "outputs": [
        {
          "internalType": "uint256",
          "name": "",
          "type": "uint256"
        }
      ],
      "stateMutability": "view",
      "type": "function"
    },
    {
      "inputs": [
        {
          "internalType": "address",
          "name": "token",
          "type": "address"
        }
      ],
      "name": "released",
      "outputs": [
        {
          "internalType": "uint256",
          "name": "",
          "type": "uint256"
        }
      ],
      "stateMutability": "view",
      "type": "function"
    },
    {
      "inputs": [],
      "name": "remainingVestingTime",
      "outputs": [
        {
          "internalType": "uint256",
          "name": "",
          "type": "uint256"
        }
      ],
      "stateMutability": "view",
      "type": "function"
    },
    {
      "inputs": [],
      "name": "renounceOwnership",
      "outputs": [],
      "stateMutability": "nonpayable",
      "type": "function"
    },
    {
      "inputs": [
        {
          "internalType": "uint64",
          "name": "startTimestamp",
          "type": "uint64"
        },
        {
          "internalType": "uint64",
          "name": "durationSeconds",
          "type": "uint64"
        }
      ],
      "name": "setVestingSchedule",
      "outputs": [],
      "stateMutability": "nonpayable",
      "type": "function"
    },
    {
      "inputs": [],
      "name": "start",
      "outputs": [
        {
          "internalType": "uint256",
          "name": "",
          "type": "uint256"
        }
      ],
      "stateMutability": "view",
      "type": "function"
    },
    {
      "inputs": [
        {
          "internalType": "address",
          "name": "token",
          "type": "address"
        }
      ],
      "name": "totalBalance",
      "outputs": [
        {
          "internalType": "uint256",
          "name": "",
          "type": "uint256"
        }
      ],
      "stateMutability": "view",
      "type": "function"
    },
    {
      "inputs": [
        {
          "internalType": "address",
          "name": "newOwner",
          "type": "address"
        }
      ],
      "name": "transferOwnership",
      "outputs": [],
      "stateMutability": "nonpayable",
      "type": "function"
    },
    {
      "inputs": [
        {
          "internalType": "address",
          "name": "token",
          "type": "address"
        }
      ],
      "name": "unvestedAmount",
      "outputs": [
        {
          "internalType": "uint256",
          "name": "",
          "type": "uint256"
        }
      ],
      "stateMutability": "view",
      "type": "function"
    },
    {
      "inputs": [
        {
          "internalType": "address",
          "name": "newBeneficiary",
          "type": "address"
        }
      ],
      "name": "updateBeneficiary",
      "outputs": [],
      "stateMutability": "nonpayable",
      "type": "function"
    },
    {
      "inputs": [
        {
          "internalType": "uint64",
          "name": "timestamp",
          "type": "uint64"
        }
      ],
      "name": "vestedAmount",
      "outputs": [
        {
          "internalType": "uint256",
          "name": "",
          "type": "uint256"
        }
      ],
      "stateMutability": "view",
      "type": "function"
    },
    {
      "inputs": [
        {
          "internalType": "address",
          "name": "token",
          "type": "address"
        },
        {
          "internalType": "uint64",
          "name": "timestamp",
          "type": "uint64"
        }
      ],
      "name": "vestedAmount",
      "outputs": [
        {
          "internalType": "uint256",
          "name": "",
          "type": "uint256"
        }
      ],
      "stateMutability": "view",
      "type": "function"
    },
    {
      "inputs": [],
      "name": "vestingProgress",
      "outputs": [
        {
          "internalType": "uint256",
          "name": "",
          "type": "uint256"
        }
      ],
      "stateMutability": "view",
      "type": "function"
    },
    {
      "stateMutability": "payable",
      "type": "receive"
    }
  ],
  "bytecode": "0x60806040523480156200001157600080fd5b50604051620013b8380380620013b88339810160408190526200003491620001b3565b836001600160a01b0381166200006557604051631e4fbdf760e01b8152600060048201526024015b60405180910390fd5b62000070816200012e565b506001600160a01b038316620000d45760405162461bcd60e51b815260206004820152602260248201527f42656e65666963696172792063616e6e6f74206265207a65726f206164647265604482015261737360f01b60648201526084016200005c565b600480546001600160a01b039094166001600160a01b031990941693909317909255600380546001600160401b0393841668010000000000000000026001600160801b031990911693909216929092171790555062000210565b600080546001600160a01b038381166001600160a01b0319831681178455604051919092169283917f8be0079c531659141344cd1fd0a4f28419497f9722a3daafe3b4186f6b6457e09190a35050565b80516001600160a01b03811681146200019657600080fd5b919050565b80516001600160401b03811681146200019657600080fd5b60008060008060808587031215620001ca57600080fd5b620001d5856200017e565b9350620001e5602086016200017e565b9250620001f5604086016200019b565b915062000205606086016200019b565b905092959194509250565b61119880620002206000396000f3fe60806040526004361061016a5760003560e01c80638da5cb5b116100d1578063b1c255861161008a578063ed2abf9b11610064578063ed2abf9b14610422578063efbe1c1c14610437578063f2fde38b1461044c578063fbccedae1461046c57600080fd5b8063b1c25586146103cf578063be9a6555146103ef578063ecb70fb71461040d57600080fd5b80638da5cb5b14610311578063921627121461032f57806396132521146103445780639852595c14610359578063a3f8eace1461038f578063a492d491146103af57600080fd5b80634c17fb56116101235780634c17fb56146102675780636eacd398146102875780636ff1c9bc146102a7578063715018a6146102c7578063810ec23b146102dc57806386d1a69f146102fc57600080fd5b80630a17b06b146101765780630aaffd2a146101a95780630fb5a6b4146101cb57806319165587146101f057806338af3eed1461021057806344691f7e1461024257600080fd5b3661017157005b600080fd5b34801561018257600080fd5b50610196610191366004610fbd565b610481565b6040519081526020015b60405180910390f35b3480156101b557600080fd5b506101c96101c4366004610fef565b6104a5565b005b3480156101d757600080fd5b50600354600160401b90046001600160401b0316610196565b3480156101fc57600080fd5b506101c961020b366004610fef565b610569565b34801561021c57600080fd5b506004546001600160a01b03165b6040516001600160a01b0390911681526020016101a0565b34801561024e57600080fd5b50610257610604565b60405190151581526020016101a0565b34801561027357600080fd5b506101c961028236600461100a565b610620565b34801561029357600080fd5b506101966102a2366004610fef565b610747565b3480156102b357600080fd5b506101c96102c2366004610fef565b6107d2565b3480156102d357600080fd5b506101c9610889565b3480156102e857600080fd5b506101966102f736600461103d565b61089d565b34801561030857600080fd5b506101c9610933565b34801561031d57600080fd5b506000546001600160a01b031661022a565b34801561033b57600080fd5b506101966109a7565b34801561035057600080fd5b50600154610196565b34801561036557600080fd5b50610196610374366004610fef565b6001600160a01b031660009081526002602052604090205490565b34801561039b57600080fd5b506101966103aa366004610fef565b6109d5565b3480156103bb57600080fd5b506101966103ca366004610fef565b610a02565b3480156103db57600080fd5b506101c96103ea366004611059565b610a17565b3480156103fb57600080fd5b506003546001600160401b0316610196565b34801561041957600080fd5b50610257610b0a565b34801561042e57600080fd5b50610196610b14565b34801561044357600080fd5b50610196610b78565b34801561045857600080fd5b506101c9610467366004610fef565b610b9a565b34801561047857600080fd5b50610196610bd5565b600061049f61048f60015490565b6104999047611099565b83610be9565b92915050565b6104ad610c80565b6001600160a01b0381166105175760405162461bcd60e51b815260206004820152602660248201527f4e65772062656e65666963696172792063616e6e6f74206265207a65726f206160448201526564647265737360d01b60648201526084015b60405180910390fd5b600480546001600160a01b038381166001600160a01b0319831681179093556040519116919082907fe72eaf6addaa195f3c83095031dd08f3a96808dcf047babed1fe4e4f69d6c62290600090a35050565b6000610574826109d5565b6001600160a01b0383166000908152600260205260408120805492935083929091906105a1908490611099565b90915550506040518181526001600160a01b038316907fc0e523490dd523c33b1878c9eb14ff46991e3f5b2cd33710918618f2a39cba1b9060200160405180910390a2610600826105fa6004546001600160a01b031690565b83610cad565b5050565b60006106186003546001600160401b031690565b421015905090565b610628610c80565b6003546001600160401b0316421061067c5760405162461bcd60e51b815260206004820152601760248201527615995cdd1a5b99c8185b1c9958591e481cdd185c9d1959604a1b604482015260640161050e565b42826001600160401b0316116106d45760405162461bcd60e51b815260206004820152601760248201527f5374617274206d75737420626520696e20667574757265000000000000000000604482015260640161050e565b600380546001600160401b038481166fffffffffffffffffffffffffffffffff199092168217600160401b918516918202179092556040805191825260208201929092527ff09ed0ae2fd02f1d717c2d5e82c79c3b86641714e86b5e26bca325fe34b5b437910160405180910390a15050565b6001600160a01b0381166000908152600260205260408120546040516370a0823160e01b81523060048201526001600160a01b038416906370a0823190602401602060405180830381865afa1580156107a4573d6000803e3d6000fd5b505050506040513d601f19601f820116820180604052508101906107c891906110ac565b61049f9190611099565b6107da610c80565b60006107e582610a02565b90506000811161082c5760405162461bcd60e51b81526020600482015260126024820152714e6f20756e76657374656420746f6b656e7360701b604482015260640161050e565b610842826105fa6000546001600160a01b031690565b816001600160a01b03167f5fafa99d0643513820be26656b45130b01e1c03062e1266bf36f88cbd3bd96958260405161087d91815260200190565b60405180910390a25050565b610891610c80565b61089b6000610d11565b565b6001600160a01b03821660009081526002602052604081205461092c906040516370a0823160e01b81523060048201526001600160a01b038616906370a0823190602401602060405180830381865afa1580156108fe573d6000803e3d6000fd5b505050506040513d601f19601f8201168201806040525081019061092291906110ac565b6104999190611099565b9392505050565b600061093d610bd5565b905080600160008282546109519190611099565b90915550506040518181527fda9d4e5f101b8b9b1c5b76d0c5a9f7923571acfc02376aa076b75a8c080c956b9060200160405180910390a16109a461099e6004546001600160a01b031690565b82610d61565b50565b60006109b1610b78565b42106109bd5750600090565b426109c6610b78565b6109d091906110c5565b905090565b6001600160a01b0381166000908152600260205260408120546109f8834261089d565b61049f91906110c5565b6000610a0e824261089d565b6109f883610747565b610a1f610c80565b60008111610a6f5760405162461bcd60e51b815260206004820152601d60248201527f416d6f756e74206d7573742062652067726561746572207468616e2030000000604482015260640161050e565b6003546001600160401b03164210610ac35760405162461bcd60e51b815260206004820152601760248201527615995cdd1a5b99c8185b1c9958591e481cdd185c9d1959604a1b604482015260640161050e565b610acf82333084610df8565b816001600160a01b03167fac87f20a77d28ee8bbb58ec87ea8fa968b3393efae1a368fd50b767c2847391c8260405161087d91815260200190565b6000610618610b78565b6000610b1e610b78565b4210610b2a5750606490565b6003546001600160401b0316421015610b435750600090565b6003546001600160401b03600160401b8204811691610b639116426110c5565b610b6e9060646110d8565b6109d091906110ef565b6003546000906109d0906001600160401b03600160401b820481169116611099565b610ba2610c80565b6001600160a01b038116610bcc57604051631e4fbdf760e01b81526000600482015260240161050e565b6109a481610d11565b6000610be060015490565b6109c642610481565b6000610bfd6003546001600160401b031690565b826001600160401b03161015610c155750600061049f565b610c1d610b78565b826001600160401b031610610c3357508161049f565b600354600160401b90046001600160401b03166003546001600160401b0316610c65906001600160401b0385166110c5565b610c6f90856110d8565b610c7991906110ef565b905061049f565b6000546001600160a01b0316331461089b5760405163118cdaa760e01b815233600482015260240161050e565b6040516001600160a01b03838116602483015260448201839052610d0c91859182169063a9059cbb906064015b604051602081830303815290604052915060e01b6020820180516001600160e01b038381831617835250505050610e37565b505050565b600080546001600160a01b038381166001600160a01b0319831681178455604051919092169283917f8be0079c531659141344cd1fd0a4f28419497f9722a3daafe3b4186f6b6457e09190a35050565b80471015610d845760405163cd78605960e01b815230600482015260240161050e565b6000826001600160a01b03168260405160006040518083038185875af1925050503d8060008114610dd1576040519150601f19603f3d011682016040523d82523d6000602084013e610dd6565b606091505b5050905080610d0c57604051630a12f52160e11b815260040160405180910390fd5b6040516001600160a01b038481166024830152838116604483015260648201839052610e319186918216906323b872dd90608401610cda565b50505050565b6000610e4c6001600160a01b03841683610e9a565b90508051600014158015610e71575080806020019051810190610e6f9190611111565b155b15610d0c57604051635274afe760e01b81526001600160a01b038416600482015260240161050e565b606061092c8383600084600080856001600160a01b03168486604051610ec09190611133565b60006040518083038185875af1925050503d8060008114610efd576040519150601f19603f3d011682016040523d82523d6000602084013e610f02565b606091505b5091509150610f12868383610f1c565b9695505050505050565b606082610f3157610f2c82610f78565b61092c565b8151158015610f4857506001600160a01b0384163b155b15610f7157604051639996b31560e01b81526001600160a01b038516600482015260240161050e565b508061092c565b805115610f885780518082602001fd5b604051630a12f52160e11b815260040160405180910390fd5b80356001600160401b0381168114610fb857600080fd5b919050565b600060208284031215610fcf57600080fd5b61092c82610fa1565b80356001600160a01b0381168114610fb857600080fd5b60006020828403121561100157600080fd5b61092c82610fd8565b6000806040838503121561101d57600080fd5b61102683610fa1565b915061103460208401610fa1565b90509250929050565b6000806040838503121561105057600080fd5b61102683610fd8565b6000806040838503121561106c57600080fd5b61107583610fd8565b946020939093013593505050565b634e487b7160e01b600052601160045260246000fd5b8082018082111561049f5761049f611083565b6000602082840312156110be57600080fd5b5051919050565b8181038181111561049f5761049f611083565b808202811582820484141761049f5761049f611083565b60008261110c57634e487b7160e01b600052601260045260246000fd5b500490565b60006020828403121561112357600080fd5b8151801515811461092c57600080fd5b6000825160005b81811015611154576020818601810151858301520161113a565b50600092019182525091905056fea26469706673582212201b54c3599a2bd34524e00c2ae87570f6f428b85c70a31abbe9e6d9d080df1fdf64736f6c63430008180033",
  "linkReferences": {},
  "deployedLinkReferences": {}
}