{
  "_format": "hh-sol-artifact-1",
  "contractName": "ICOContract",
  "sourceName": "contracts/ico.sol",
  "abi": [
    {
      "inputs": [
        {
          "internalType": "contract IERC20",
          "name": "_token",
          "type": "address"
        }
      ],
      "stateMutability": "nonpayable",
      "type": "constructor"
    },
    {
      "inputs": [
        {
          "internalType": "address",
          "name": "owner",
          "type": "address"
        }
      ],
      "name": "OwnableInvalidOwner",
      "type": "error"
    },
    {
      "inputs": [
        {
          "internalType": "address",
          "name": "account",
          "type": "address"
        }
      ],
      "name": "OwnableUnauthorizedAccount",
      "type": "error"
    },
    {
      "anonymous": false,
      "inputs": [],
      "name": "IcoEnded",
      "type": "event"
    },
    {
      "anonymous": false,
      "inputs": [],
      "name": "IcoPaused",
      "type": "event"
    },
    {
      "anonymous": false,
      "inputs": [],
      "name": "IcoResumed",
      "type": "event"
    },
    {
      "anonymous": false,
      "inputs": [
        {
          "indexed": false,
          "internalType": "uint256",
          "name": "startTimestamp",
          "type": "uint256"
        },
        {
          "indexed": false,
          "internalType": "uint256",
          "name": "endTimestamp",
          "type": "uint256"
        }
      ],
      "name": "IcoStarted",
      "type": "event"
    },
    {
      "anonymous": false,
      "inputs": [
        {
          "indexed": true,
          "internalType": "address",
          "name": "previousOwner",
          "type": "address"
        },
        {
          "indexed": true,
          "internalType": "address",
          "name": "newOwner",
          "type": "address"
        }
      ],
      "name": "OwnershipTransferred",
      "type": "event"
    },
    {
      "anonymous": false,
      "inputs": [
        {
          "indexed": true,
          "internalType": "address",
          "name": "claimant",
          "type": "address"
        },
        {
          "indexed": false,
          "internalType": "uint256",
          "name": "amount",
          "type": "uint256"
        }
      ],
      "name": "TokensClaimed",
      "type": "event"
    },
    {
      "anonymous": false,
      "inputs": [
        {
          "indexed": true,
          "internalType": "address",
          "name": "purchaser",
          "type": "address"
        },
        {
          "indexed": false,
          "internalType": "uint256",
          "name": "amount",
          "type": "uint256"
        },
        {
          "indexed": false,
          "internalType": "uint256",
          "name": "value",
          "type": "uint256"
        }
      ],
      "name": "TokensPurchased",
      "type": "event"
    },
    {
      "anonymous": false,
      "inputs": [
        {
          "indexed": true,
          "internalType": "address",
          "name": "owner",
          "type": "address"
        },
        {
          "indexed": false,
          "internalType": "uint256",
          "name": "amount",
          "type": "uint256"
        }
      ],
      "name": "TokensWithdrawn",
      "type": "event"
    },
    {
      "inputs": [],
      "name": "VESTING_PERIOD",
      "outputs": [
        {
          "internalType": "uint256",
          "name": "",
          "type": "uint256"
        }
      ],
      "stateMutability": "view",
      "type": "function"
    },
    {
      "inputs": [],
      "name": "claim",
      "outputs": [],
      "stateMutability": "nonpayable",
      "type": "function"
    },
    {
      "inputs": [],
      "name": "contribute",
      "outputs": [],
      "stateMutability": "payable",
      "type": "function"
    },
    {
      "inputs": [],
      "name": "end",
      "outputs": [],
      "stateMutability": "nonpayable",
      "type": "function"
    },
    {
      "inputs": [
        {
          "internalType": "address",
          "name": "user",
          "type": "address"
        }
      ],
      "name": "getClaimableAmount",
      "outputs": [
        {
          "internalType": "uint256",
          "name": "",
          "type": "uint256"
        }
      ],
      "stateMutability": "view",
      "type": "function"
    },
    {
      "inputs": [],
      "name": "getEthEurRate",
      "outputs": [
        {
          "internalType": "uint256",
          "name": "",
          "type": "uint256"
        }
      ],
      "stateMutability": "view",
      "type": "function"
    },
    {
      "inputs": [],
      "name": "getIcoInfo",
      "outputs": [
        {
          "internalType": "bool",
          "name": "isActive",
          "type": "bool"
        },
        {
          "internalType": "uint256",
          "name": "startTime",
          "type": "uint256"
        },
        {
          "internalType": "uint256",
          "name": "endTime",
          "type": "uint256"
        }
      ],
      "stateMutability": "view",
      "type": "function"
    },
    {
      "inputs": [],
      "name": "getTokenPriceEur",
      "outputs": [
        {
          "internalType": "uint256",
          "name": "",
          "type": "uint256"
        }
      ],
      "stateMutability": "pure",
      "type": "function"
    },
    {
      "inputs": [
        {
          "internalType": "address",
          "name": "user",
          "type": "address"
        }
      ],
      "name": "getVestingInfo",
      "outputs": [
        {
          "internalType": "uint256",
          "name": "totalAmount",
          "type": "uint256"
        },
        {
          "internalType": "uint256",
          "name": "startBlock",
          "type": "uint256"
        },
        {
          "internalType": "uint256",
          "name": "claimedAmount",
          "type": "uint256"
        },
        {
          "internalType": "uint256",
          "name": "lastClaimBlock",
          "type": "uint256"
        }
      ],
      "stateMutability": "view",
      "type": "function"
    },
    {
      "inputs": [],
      "name": "icoActive",
      "outputs": [
        {
          "internalType": "bool",
          "name": "",
          "type": "bool"
        }
      ],
      "stateMutability": "view",
      "type": "function"
    },
    {
      "inputs": [],
      "name": "icoEndBlock",
      "outputs": [
        {
          "internalType": "uint256",
          "name": "",
          "type": "uint256"
        }
      ],
      "stateMutability": "view",
      "type": "function"
    },
    {
      "inputs": [],
      "name": "icoStartBlock",
      "outputs": [
        {
          "internalType": "uint256",
          "name": "",
          "type": "uint256"
        }
      ],
      "stateMutability": "view",
      "type": "function"
    },
    {
      "inputs": [],
      "name": "icoStatus",
      "outputs": [
        {
          "internalType": "bool",
          "name": "",
          "type": "bool"
        }
      ],
      "stateMutability": "view",
      "type": "function"
    },
    {
      "inputs": [],
      "name": "initialized",
      "outputs": [
        {
          "internalType": "bool",
          "name": "",
          "type": "bool"
        }
      ],
      "stateMutability": "view",
      "type": "function"
    },
    {
      "inputs": [
        {
          "internalType": "uint256",
          "name": "endBlock",
          "type": "uint256"
        }
      ],
      "name": "initiate",
      "outputs": [],
      "stateMutability": "nonpayable",
      "type": "function"
    },
    {
      "inputs": [],
      "name": "owner",
      "outputs": [
        {
          "internalType": "address",
          "name": "",
          "type": "address"
        }
      ],
      "stateMutability": "view",
      "type": "function"
    },
    {
      "inputs": [],
      "name": "pause",
      "outputs": [],
      "stateMutability": "nonpayable",
      "type": "function"
    },
    {
      "inputs": [],
      "name": "paused",
      "outputs": [
        {
          "internalType": "bool",
          "name": "",
          "type": "bool"
        }
      ],
      "stateMutability": "view",
      "type": "function"
    },
    {
      "inputs": [],
      "name": "renounceOwnership",
      "outputs": [],
      "stateMutability": "nonpayable",
      "type": "function"
    },
    {
      "inputs": [],
      "name": "resume",
      "outputs": [],
      "stateMutability": "nonpayable",
      "type": "function"
    },
    {
      "inputs": [],
      "name": "token",
      "outputs": [
        {
          "internalType": "contract IERC20",
          "name": "",
          "type": "address"
        }
      ],
      "stateMutability": "view",
      "type": "function"
    },
    {
      "inputs": [],
      "name": "tokenHolder",
      "outputs": [
        {
          "internalType": "contract TokenHolder",
          "name": "",
          "type": "address"
        }
      ],
      "stateMutability": "view",
      "type": "function"
    },
    {
      "inputs": [
        {
          "internalType": "address",
          "name": "newOwner",
          "type": "address"
        }
      ],
      "name": "transferOwnership",
      "outputs": [],
      "stateMutability": "nonpayable",
      "type": "function"
    },
    {
      "inputs": [
        {
          "internalType": "address",
          "name": "",
          "type": "address"
        }
      ],
      "name": "vestings",
      "outputs": [
        {
          "internalType": "uint256",
          "name": "totalAmount",
          "type": "uint256"
        },
        {
          "internalType": "uint256",
          "name": "startBlock",
          "type": "uint256"
        },
        {
          "internalType": "uint256",
          "name": "claimedAmount",
          "type": "uint256"
        },
        {
          "internalType": "uint256",
          "name": "lastClaimBlock",
          "type": "uint256"
        }
      ],
      "stateMutability": "view",
      "type": "function"
    }
  ],
  "bytecode": "0x60806040523480156200001157600080fd5b50604051620019f5380380620019f583398101604081905262000034916200019a565b33806200005b57604051631e4fbdf760e01b81526000600482015260240160405180910390fd5b62000066816200013c565b50600180546001600160a01b0319166001600160a01b0383161790556040518190339062000094906200018c565b6001600160a01b03928316815291166020820152604001604051809103906000f080158015620000c8573d6000803e3d6000fd5b50600780546001600160a01b03929092166001600160a01b0319928316179055600480547671041dddad3595f9ced3dccfbe3d1f4b0a16bb700000006301000000600160b81b03199091161790556005805490911673c91d87e81fab8f93699ecf7ee9b44d11e1d53f0f17905550620001cc565b600080546001600160a01b038381166001600160a01b0319831681178455604051919092169283917f8be0079c531659141344cd1fd0a4f28419497f9722a3daafe3b4186f6b6457e09190a35050565b61031e80620016d783390190565b600060208284031215620001ad57600080fd5b81516001600160a01b0381168114620001c557600080fd5b9392505050565b6114fb80620001dc6000396000f3fe60806040526004361061014b5760003560e01c8063852001cf116100b6578063e12f3a611161006f578063e12f3a61146103ac578063ec9bfd2e146103cc578063efbe1c1c146103e1578063f2fde38b146103f6578063fb897ce414610416578063fc0c546a1461046257600080fd5b8063852001cf146102be5780638582ac21146102d85780638da5cb5b1461030f578063d7bb99ba1461032d578063d96e1f7614610335578063daf498631461034a57600080fd5b806347d70f741161010857806347d70f74146102295780634e71d92d1461023f5780635c975abb14610254578063715018a6146102745780637901ea78146102895780638456cb59146102a957600080fd5b80630197d97214610150578063046f7da21461017b57806312ea965d14610192578063158ef93e146101a85780632aa073c5146101d7578063420a83e7146101f1575b600080fd5b34801561015c57600080fd5b5061016863013c680081565b6040519081526020015b60405180910390f35b34801561018757600080fd5b50610190610482565b005b34801561019e57600080fd5b5061016860025481565b3480156101b457600080fd5b506004546101c790610100900460ff1681565b6040519015158152602001610172565b3480156101e357600080fd5b506004546101c79060ff1681565b3480156101fd57600080fd5b50600754610211906001600160a01b031681565b6040516001600160a01b039091168152602001610172565b34801561023557600080fd5b5061016860035481565b34801561024b57600080fd5b5061019061055d565b34801561026057600080fd5b506004546101c79062010000900460ff1681565b34801561028057600080fd5b506101906106d3565b34801561029557600080fd5b506101906102a436600461132f565b6106e7565b3480156102b557600080fd5b506101906107e8565b3480156102ca57600080fd5b5066f5232269808000610168565b3480156102e457600080fd5b506004546002546003546040805160ff90941615158452602084019290925290820152606001610172565b34801561031b57600080fd5b506000546001600160a01b0316610211565b61019061084e565b34801561034157600080fd5b506101c7610cdc565b34801561035657600080fd5b5061038c610365366004611348565b60066020526000908152604090208054600182015460028301546003909301549192909184565b604080519485526020850193909352918301526060820152608001610172565b3480156103b857600080fd5b506101686103c7366004611348565b610d07565b3480156103d857600080fd5b50610168610db9565b3480156103ed57600080fd5b506101906110c0565b34801561040257600080fd5b50610190610411366004611348565b611274565b34801561042257600080fd5b5061038c610431366004611348565b6001600160a01b03166000908152600660205260409020805460018201546002830154600390930154919390929190565b34801561046e57600080fd5b50600154610211906001600160a01b031681565b61048a6112b2565b60045460ff16156104da5760405162461bcd60e51b815260206004820152601560248201527449434f20697320616c72656164792061637469766560581b60448201526064015b60405180910390fd5b60045462010000900460ff166105265760405162461bcd60e51b81526020600482015260116024820152701250d3c81a5cc81b9bdd081c185d5cd959607a1b60448201526064016104d1565b6004805462ff0000191690556040517f8e4a943d8cb0ae3aeb93e78326a59e6502d76bc1faeb9a2cbb6204492dbb7a1a90600090a1565b33600090815260066020526040902080546105ba5760405162461bcd60e51b815260206004820152601a60248201527f4e6f2076657374656420746f6b656e7320617661696c61626c6500000000000060448201526064016104d1565b60006105c533610d07565b9050600081116106175760405162461bcd60e51b815260206004820152601f60248201527f4e6f20746f6b656e7320746f20636c61696d20617420746869732074696d650060448201526064016104d1565b8082600201600082825461062b919061138e565b909155505043600383015560075460405163a9059cbb60e01b8152336004820152602481018390526001600160a01b039091169063a9059cbb90604401600060405180830381600087803b15801561068257600080fd5b505af1158015610696573d6000803e3d6000fd5b50506040518381523392507f896e034966eaaf1adc54acc0f257056febbd300c9e47182cf761982cf1f5e430915060200160405180910390a25050565b6106db6112b2565b6106e560006112df565b565b6106ef6112b2565b60045460ff161561073a5760405162461bcd60e51b815260206004820152601560248201527449434f20697320616c72656164792061637469766560581b60448201526064016104d1565b600454610100900460ff16156107925760405162461bcd60e51b815260206004820152601a60248201527f49434f20697320616c726561647920696e697469616c697a656400000000000060448201526064016104d1565b43600281905560038290556004805461ffff191661010117905560408051918252602082018390527f1077a97deda94132bd2ad00885da7c7da7f5895a7f599a5a6bdcdefe84f4b766910160405180910390a150565b6107f06112b2565b60045460ff166108125760405162461bcd60e51b81526004016104d1906113a7565b6004805462ff00001916620100001790556040517f75ee731553f63397b683c48301221bb5719aa3f6e55e73767d993f87fff4980490600090a1565b60045460ff166108705760405162461bcd60e51b81526004016104d1906113a7565b60045462010000900460ff16156108b95760405162461bcd60e51b815260206004820152600d60248201526c1250d3c81a5cc81c185d5cd959609a1b60448201526064016104d1565b6003544311156108fb5760405162461bcd60e51b815260206004820152600d60248201526c1250d3c81a185cc8195b991959609a1b60448201526064016104d1565b33600090815260066020526040902054156109695760405162461bcd60e51b815260206004820152602860248201527f596f75206861766520616c72656164792070617274696369706174656420696e604482015267207468652049434f60c01b60648201526084016104d1565b6000610973610db9565b90506000670de0b6b3a764000061098a83346113d2565b61099491906113e9565b9050600066f52322698080006109af836402540be4006113d2565b6109c190670de0b6b3a76400006113d2565b6109cb91906113e9565b905060008111610a135760405162461bcd60e51b8152602060048201526013602482015272139bc81d1bdad95b9cc81c1d5c98da185cd959606a1b60448201526064016104d1565b6001546040516370a0823160e01b81523060048201526001600160a01b03909116906370a0823190602401602060405180830381865afa158015610a5b573d6000803e3d6000fd5b505050506040513d601f19601f82011682018060405250810190610a7f919061140b565b811115610ace5760405162461bcd60e51b815260206004820152601b60248201527f4e6f7420656e6f75676820746f6b656e7320617661696c61626c65000000000060448201526064016104d1565b6000610adb6003836113e9565b90506000610ae98284611424565b33600081815260066020526040808220848155436001808301829055600283019490945560038201559154905163a9059cbb60e01b8152600481019390935260248301869052929350916001600160a01b03169063a9059cbb906044016020604051808303816000875af1158015610b65573d6000803e3d6000fd5b505050506040513d601f19601f82011682018060405250810190610b899190611437565b610bd55760405162461bcd60e51b815260206004820152601d60248201527f496e697469616c20746f6b656e207472616e73666572206661696c656400000060448201526064016104d1565b60015460075460405163a9059cbb60e01b81526001600160a01b0391821660048201526024810185905291169063a9059cbb906044016020604051808303816000875af1158015610c2a573d6000803e3d6000fd5b505050506040513d601f19601f82011682018060405250810190610c4e9190611437565b610c9a5760405162461bcd60e51b815260206004820152601d60248201527f56657374696e6720746f6b656e207472616e73666572206661696c656400000060448201526064016104d1565b6040805185815234602082015233917f8fafebcaf9d154343dad25669bfa277f4fbacd7ac6b0c4fed522580e040a0f33910160405180910390a2505050505050565b60045460009060ff168015610cf2575060035443115b15610cfd5750600090565b5060045460ff1690565b6001600160a01b038116600090815260066020526040812080548203610d305750600092915050565b6000816001015443610d429190611424565b9050600062015180610d5a61a8c063013c68006113d2565b610d6491906113e9565b8354610d719084906113d2565b610d7b91906113e9565b8354909150811115610d8b575081545b82600201548111610da157506000949350505050565b6002830154610db09082611424565b95945050505050565b6000806000806000600460039054906101000a90046001600160a01b03166001600160a01b031663feaf968c6040518163ffffffff1660e01b815260040160a060405180830381865afa158015610e14573d6000803e3d6000fd5b505050506040513d601f19601f82011682018060405250810190610e389190611475565b945094505093509350600080600080600560009054906101000a90046001600160a01b03166001600160a01b031663feaf968c6040518163ffffffff1660e01b815260040160a060405180830381865afa158015610e9a573d6000803e3d6000fd5b505050506040513d601f19601f82011682018060405250810190610ebe9190611475565b945094505093509350846001600160501b0316886001600160501b031614610f1b5760405162461bcd60e51b815260206004820152601060248201526f5374616c65207072696365206461746160801b60448201526064016104d1565b806001600160501b0316846001600160501b031614610f6f5760405162461bcd60e51b815260206004820152601060248201526f5374616c65207072696365206461746160801b60448201526064016104d1565b60008713610fb45760405162461bcd60e51b8152602060048201526012602482015271496e76616c6964207072696365206461746160701b60448201526064016104d1565b60008313610ff95760405162461bcd60e51b8152602060048201526012602482015271496e76616c6964207072696365206461746160701b60448201526064016104d1565b610e106110068742611424565b11156110495760405162461bcd60e51b8152602060048201526012602482015271141c9a58d94819185d18481d1bdbc81bdb1960721b60448201526064016104d1565b620557306110578342611424565b111561109a5760405162461bcd60e51b8152602060048201526012602482015271141c9a58d94819185d18481d1bdbc81bdb1960721b60448201526064016104d1565b826110a9886305f5e1006113d2565b6110b391906113e9565b9850505050505050505090565b6110c86112b2565b60035443116111115760405162461bcd60e51b81526020600482015260156024820152741250d3c81a185cc81b9bdd08195b991959081e595d605a1b60448201526064016104d1565b60045460ff166111335760405162461bcd60e51b81526004016104d1906113a7565b6001546040516370a0823160e01b81523060048201526000916001600160a01b0316906370a0823190602401602060405180830381865afa15801561117c573d6000803e3d6000fd5b505050506040513d601f19601f820116820180604052508101906111a0919061140b565b9050801561123e576001546001600160a01b031663a9059cbb6111cb6000546001600160a01b031690565b6040516001600160e01b031960e084901b1681526001600160a01b039091166004820152602481018490526044016020604051808303816000875af1158015611218573d6000803e3d6000fd5b505050506040513d601f19601f8201168201806040525081019061123c9190611437565b505b6004805460ff191690556040517f236b5488d7d568eed00b6315077bce0d53f4bb657dc95e05c71325a26ce1cc7790600090a150565b61127c6112b2565b6001600160a01b0381166112a657604051631e4fbdf760e01b8152600060048201526024016104d1565b6112af816112df565b50565b6000546001600160a01b031633146106e55760405163118cdaa760e01b81523360048201526024016104d1565b600080546001600160a01b038381166001600160a01b0319831681178455604051919092169283917f8be0079c531659141344cd1fd0a4f28419497f9722a3daafe3b4186f6b6457e09190a35050565b60006020828403121561134157600080fd5b5035919050565b60006020828403121561135a57600080fd5b81356001600160a01b038116811461137157600080fd5b9392505050565b634e487b7160e01b600052601160045260246000fd5b808201808211156113a1576113a1611378565b92915050565b60208082526011908201527049434f206973206e6f742061637469766560781b604082015260600190565b80820281158282048414176113a1576113a1611378565b60008261140657634e487b7160e01b600052601260045260246000fd5b500490565b60006020828403121561141d57600080fd5b5051919050565b818103818111156113a1576113a1611378565b60006020828403121561144957600080fd5b8151801515811461137157600080fd5b80516001600160501b038116811461147057600080fd5b919050565b600080600080600060a0868803121561148d57600080fd5b61149686611459565b94506020860151935060408601519250606086015191506114b960808701611459565b9050929550929590935056fea26469706673582212205016d1c83d78cbc876afdd1bdf59be20863f33d91630fb14984f8ed8212c393c64736f6c63430008180033608060405234801561001057600080fd5b5060405161031e38038061031e83398101604081905261002f91610078565b600080546001600160a01b039384166001600160a01b031991821617909155600180549290931691161790556100b2565b6001600160a01b038116811461007557600080fd5b50565b6000806040838503121561008b57600080fd5b825161009681610060565b60208401519092506100a781610060565b809150509250929050565b61025d806100c16000396000f3fe608060405234801561001057600080fd5b50600436106100415760003560e01c80638da5cb5b14610046578063a9059cbb14610075578063fc0c546a1461008a575b600080fd5b600154610059906001600160a01b031681565b6040516001600160a01b03909116815260200160405180910390f35b6100886100833660046101c6565b61009d565b005b600054610059906001600160a01b031681565b6001546001600160a01b031633146101075760405162461bcd60e51b815260206004820152602260248201527f4f6e6c7920746865206f776e65722063616e207472616e7366657220746f6b656044820152616e7360f01b60648201526084015b60405180910390fd5b60005460405163a9059cbb60e01b81526001600160a01b038481166004830152602482018490529091169063a9059cbb906044016020604051808303816000875af115801561015a573d6000803e3d6000fd5b505050506040513d601f19601f8201168201806040525081019061017e91906101fe565b6101c25760405162461bcd60e51b8152602060048201526015602482015274151bdad95b881d1c985b9cd9995c8819985a5b1959605a1b60448201526064016100fe565b5050565b600080604083850312156101d957600080fd5b82356001600160a01b03811681146101f057600080fd5b946020939093013593505050565b60006020828403121561021057600080fd5b8151801515811461022057600080fd5b939250505056fea26469706673582212204fbfd61cfaf82a48b24a544cb7a62ba1741042811dd54e64ccd0a746752620f064736f6c63430008180033",
  "linkReferences": {},
  "deployedLinkReferences": {}
}