{
  "_format": "hh-sol-artifact-1",
  "contractName": "TokenLock",
  "sourceName": "contracts/tokenLock.sol",
  "abi": [
    {
      "inputs": [
        {
          "internalType": "address",
          "name": "_token",
          "type": "address"
        }
      ],
      "stateMutability": "nonpayable",
      "type": "constructor"
    },
    {
      "inputs": [
        {
          "internalType": "address",
          "name": "owner",
          "type": "address"
        }
      ],
      "name": "OwnableInvalidOwner",
      "type": "error"
    },
    {
      "inputs": [
        {
          "internalType": "address",
          "name": "account",
          "type": "address"
        }
      ],
      "name": "OwnableUnauthorizedAccount",
      "type": "error"
    },
    {
      "anonymous": false,
      "inputs": [
        {
          "indexed": true,
          "internalType": "address",
          "name": "previousOwner",
          "type": "address"
        },
        {
          "indexed": true,
          "internalType": "address",
          "name": "newOwner",
          "type": "address"
        }
      ],
      "name": "OwnershipTransferred",
      "type": "event"
    },
    {
      "anonymous": false,
      "inputs": [
        {
          "indexed": true,
          "internalType": "address",
          "name": "sender",
          "type": "address"
        },
        {
          "indexed": true,
          "internalType": "address",
          "name": "beneficiary",
          "type": "address"
        },
        {
          "indexed": false,
          "internalType": "uint256",
          "name": "id",
          "type": "uint256"
        },
        {
          "indexed": false,
          "internalType": "string",
          "name": "title",
          "type": "string"
        },
        {
          "indexed": false,
          "internalType": "uint256",
          "name": "amount",
          "type": "uint256"
        },
        {
          "indexed": false,
          "internalType": "uint256",
          "name": "unlockTime",
          "type": "uint256"
        }
      ],
      "name": "TokensLocked",
      "type": "event"
    },
    {
      "anonymous": false,
      "inputs": [
        {
          "indexed": true,
          "internalType": "address",
          "name": "beneficiary",
          "type": "address"
        },
        {
          "indexed": false,
          "internalType": "uint256",
          "name": "id",
          "type": "uint256"
        },
        {
          "indexed": false,
          "internalType": "uint256",
          "name": "amount",
          "type": "uint256"
        },
        {
          "indexed": false,
          "internalType": "uint256",
          "name": "when",
          "type": "uint256"
        }
      ],
      "name": "TokensWithdrawn",
      "type": "event"
    },
    {
      "inputs": [
        {
          "internalType": "uint256",
          "name": "amount",
          "type": "uint256"
        },
        {
          "internalType": "uint256",
          "name": "_unlockTime",
          "type": "uint256"
        },
        {
          "internalType": "string",
          "name": "_title",
          "type": "string"
        },
        {
          "internalType": "address",
          "name": "_beneficiary",
          "type": "address"
        }
      ],
      "name": "lockTokens",
      "outputs": [],
      "stateMutability": "nonpayable",
      "type": "function"
    },
    {
      "inputs": [
        {
          "internalType": "address",
          "name": "",
          "type": "address"
        },
        {
          "internalType": "uint256",
          "name": "",
          "type": "uint256"
        }
      ],
      "name": "locks",
      "outputs": [
        {
          "internalType": "uint256",
          "name": "id",
          "type": "uint256"
        },
        {
          "internalType": "string",
          "name": "title",
          "type": "string"
        },
        {
          "internalType": "uint256",
          "name": "amount",
          "type": "uint256"
        },
        {
          "internalType": "uint256",
          "name": "unlockTime",
          "type": "uint256"
        },
        {
          "internalType": "address",
          "name": "beneficiary",
          "type": "address"
        }
      ],
      "stateMutability": "view",
      "type": "function"
    },
    {
      "inputs": [],
      "name": "owner",
      "outputs": [
        {
          "internalType": "address",
          "name": "",
          "type": "address"
        }
      ],
      "stateMutability": "view",
      "type": "function"
    },
    {
      "inputs": [],
      "name": "renounceOwnership",
      "outputs": [],
      "stateMutability": "nonpayable",
      "type": "function"
    },
    {
      "inputs": [],
      "name": "token",
      "outputs": [
        {
          "internalType": "contract IERC20",
          "name": "",
          "type": "address"
        }
      ],
      "stateMutability": "view",
      "type": "function"
    },
    {
      "inputs": [
        {
          "internalType": "address",
          "name": "newOwner",
          "type": "address"
        }
      ],
      "name": "transferOwnership",
      "outputs": [],
      "stateMutability": "nonpayable",
      "type": "function"
    },
    {
      "inputs": [
        {
          "internalType": "address",
          "name": "_address",
          "type": "address"
        }
      ],
      "name": "viewLockedTokens",
      "outputs": [
        {
          "components": [
            {
              "internalType": "uint256",
              "name": "id",
              "type": "uint256"
            },
            {
              "internalType": "string",
              "name": "title",
              "type": "string"
            },
            {
              "internalType": "uint256",
              "name": "amount",
              "type": "uint256"
            },
            {
              "internalType": "uint256",
              "name": "unlockTime",
              "type": "uint256"
            },
            {
              "internalType": "address",
              "name": "beneficiary",
              "type": "address"
            }
          ],
          "internalType": "struct TokenLock.Lock[]",
          "name": "",
          "type": "tuple[]"
        }
      ],
      "stateMutability": "view",
      "type": "function"
    },
    {
      "inputs": [],
      "name": "withdrawFunds",
      "outputs": [],
      "stateMutability": "nonpayable",
      "type": "function"
    },
    {
      "inputs": [
        {
          "internalType": "uint256",
          "name": "_id",
          "type": "uint256"
        }
      ],
      "name": "withdrawSpecific",
      "outputs": [],
      "stateMutability": "nonpayable",
      "type": "function"
    }
  ],
  "bytecode": "0x6080604052600160035534801561001557600080fd5b506040516112f13803806112f1833981016040819052610034916100d9565b338061005a57604051631e4fbdf760e01b81526000600482015260240160405180910390fd5b61006381610089565b50600180546001600160a01b0319166001600160a01b0392909216919091179055610109565b600080546001600160a01b038381166001600160a01b0319831681178455604051919092169283917f8be0079c531659141344cd1fd0a4f28419497f9722a3daafe3b4186f6b6457e09190a35050565b6000602082840312156100eb57600080fd5b81516001600160a01b038116811461010257600080fd5b9392505050565b6111d9806101186000396000f3fe608060405234801561001057600080fd5b50600436106100935760003560e01c8063a13c410e11610066578063a13c410e146100e7578063b425f80214610107578063e62e4d501461012b578063f2fde38b1461013e578063fc0c546a1461015157600080fd5b806324600fc314610098578063715018a6146100a2578063815fff9c146100aa5780638da5cb5b146100bd575b600080fd5b6100a0610164565b005b6100a061026d565b6100a06100b8366004610c43565b610281565b6000546001600160a01b03165b6040516001600160a01b0390911681526020015b60405180910390f35b6100fa6100f5366004610d18565b6104fa565b6040516100de9190610d80565b61011a610115366004610e20565b610638565b6040516100de959493929190610e4a565b6100a0610139366004610e89565b61071e565b6100a061014c366004610d18565b610b0b565b6001546100ca906001600160a01b031681565b61016c610b46565b6001546001600160a01b031663a9059cbb61018f6000546001600160a01b031690565b6001546040516370a0823160e01b81523060048201526001600160a01b03909116906370a0823190602401602060405180830381865afa1580156101d7573d6000803e3d6000fd5b505050506040513d601f19601f820116820180604052508101906101fb9190610ea2565b6040516001600160e01b031960e085901b1681526001600160a01b03909216600483015260248201526044016020604051808303816000875af1158015610246573d6000803e3d6000fd5b505050506040513d601f19601f8201168201806040525081019061026a9190610ebb565b50565b610275610b46565b61027f6000610b73565b565b8242106102e15760405162461bcd60e51b815260206004820152602360248201527f556e6c6f636b2074696d652073686f756c6420626520696e207468652066757460448201526275726560e81b60648201526084015b60405180910390fd5b6001600160a01b0381166103375760405162461bcd60e51b815260206004820152601b60248201527f496e76616c69642062656e65666963696172792061646472657373000000000060448201526064016102d8565b6001546040516323b872dd60e01b8152336004820152306024820152604481018690526001600160a01b03909116906323b872dd906064016020604051808303816000875af115801561038e573d6000803e3d6000fd5b505050506040513d601f19601f820116820180604052508101906103b29190610ebb565b6103f05760405162461bcd60e51b815260206004820152600f60248201526e151c985b9cd9995c8819985a5b1959608a1b60448201526064016102d8565b600380546000918261040183610ef3565b909155506001600160a01b0383166000818152600260209081526040808320815160a0810183528681528084018a81529281018c9052606081018b90526080810195909552805460018181018355918552929093208451600590930201918255519394509192908201906104759082610f97565b50604082810151600283015560608301516003830155608090920151600490910180546001600160a01b0319166001600160a01b0392831617905590519083169033907f90200e2632b3762e2c77ce482446db9dbe1e2725f8b04434fef0f5f7db067b5c906104eb90859088908b908b90611057565b60405180910390a35050505050565b6001600160a01b0381166000908152600260209081526040808320805482518185028101850190935280835260609492939192909184015b8282101561062d57838290600052602060002090600502016040518060a00160405290816000820154815260200160018201805461056f90610f0c565b80601f016020809104026020016040519081016040528092919081815260200182805461059b90610f0c565b80156105e85780601f106105bd576101008083540402835291602001916105e8565b820191906000526020600020905b8154815290600101906020018083116105cb57829003601f168201915b50505091835250506002820154602080830191909152600383015460408301526004909201546001600160a01b03166060909101529082526001929092019101610532565b505050509050919050565b6002602052816000526040600020818154811061065457600080fd5b90600052602060002090600502016000915091505080600001549080600101805461067e90610f0c565b80601f01602080910402602001604051908101604052809291908181526020018280546106aa90610f0c565b80156106f75780601f106106cc576101008083540402835291602001916106f7565b820191906000526020600020905b8154815290600101906020018083116106da57829003601f168201915b5050505060028301546003840154600490940154929390929091506001600160a01b031685565b33600090815260026020526040902080546107855760405162461bcd60e51b815260206004820152602160248201527f4e6f20746f6b656e73206c6f636b656420666f722074686973206164647265736044820152607360f81b60648201526084016102d8565b60005b8154811015610ad157828282815481106107a4576107a4611083565b90600052602060002090600502016000015403610ac9578181815481106107cd576107cd611083565b90600052602060002090600502016003015442101561082e5760405162461bcd60e51b815260206004820152601760248201527f546f6b656e7320617265207374696c6c206c6f636b656400000000000000000060448201526064016102d8565b81818154811061084057610840611083565b60009182526020909120600590910201600401546001600160a01b031633146108ab5760405162461bcd60e51b815260206004820152601d60248201527f4f6e6c792062656e65666963696172792063616e20776974686472617700000060448201526064016102d8565b60008282815481106108bf576108bf611083565b600091825260209091206005909102016002015460015460405163a9059cbb60e01b8152336004820152602481018390529192506001600160a01b03169063a9059cbb906044016020604051808303816000875af1158015610925573d6000803e3d6000fd5b505050506040513d601f19601f820116820180604052508101906109499190610ebb565b6109875760405162461bcd60e51b815260206004820152600f60248201526e151c985b9cd9995c8819985a5b1959608a1b60448201526064016102d8565b8254839061099790600190611099565b815481106109a7576109a7611083565b90600052602060002090600502018383815481106109c7576109c7611083565b6000918252602090912082546005909202019081556001808201906109ee908401826110b2565b506002828101549082015560038083015490820155600491820154910180546001600160a01b0319166001600160a01b039092169190911790558254839080610a3957610a3961118d565b60008281526020812060056000199093019283020181815590610a5f6001830182610bc3565b50600060028201819055600382015560040180546001600160a01b0319169055905560408051858152602081018390524281830152905133917fb3ad69dc1d2c6b1f5f5b0927ffd8ee8f1437a156253c8f6dccc75e6f8e4fd38b919081900360600190a250505050565b600101610788565b5060405162461bcd60e51b815260206004820152600e60248201526d131bd8dac81b9bdd08199bdd5b9960921b60448201526064016102d8565b610b13610b46565b6001600160a01b038116610b3d57604051631e4fbdf760e01b8152600060048201526024016102d8565b61026a81610b73565b6000546001600160a01b0316331461027f5760405163118cdaa760e01b81523360048201526024016102d8565b600080546001600160a01b038381166001600160a01b0319831681178455604051919092169283917f8be0079c531659141344cd1fd0a4f28419497f9722a3daafe3b4186f6b6457e09190a35050565b508054610bcf90610f0c565b6000825580601f10610bdf575050565b601f01602090049060005260206000209081019061026a91905b80821115610c0d5760008155600101610bf9565b5090565b634e487b7160e01b600052604160045260246000fd5b80356001600160a01b0381168114610c3e57600080fd5b919050565b60008060008060808587031215610c5957600080fd5b8435935060208501359250604085013567ffffffffffffffff80821115610c7f57600080fd5b818701915087601f830112610c9357600080fd5b813581811115610ca557610ca5610c11565b604051601f8201601f19908116603f01168101908382118183101715610ccd57610ccd610c11565b816040528281528a6020848701011115610ce657600080fd5b826020860160208301376000602084830101528096505050505050610d0d60608601610c27565b905092959194509250565b600060208284031215610d2a57600080fd5b610d3382610c27565b9392505050565b6000815180845260005b81811015610d6057602081850181015186830182015201610d44565b506000602082860101526020601f19601f83011685010191505092915050565b600060208083018184528085518083526040925060408601915060408160051b87010184880160005b83811015610e1257603f19898403018552815160a08151855288820151818a870152610dd782870182610d3a565b838a0151878b0152606080850151908801526080938401516001600160a01b0316939096019290925250509386019390860190600101610da9565b509098975050505050505050565b60008060408385031215610e3357600080fd5b610e3c83610c27565b946020939093013593505050565b85815260a060208201526000610e6360a0830187610d3a565b60408301959095525060608101929092526001600160a01b031660809091015292915050565b600060208284031215610e9b57600080fd5b5035919050565b600060208284031215610eb457600080fd5b5051919050565b600060208284031215610ecd57600080fd5b81518015158114610d3357600080fd5b634e487b7160e01b600052601160045260246000fd5b600060018201610f0557610f05610edd565b5060010190565b600181811c90821680610f2057607f821691505b602082108103610f4057634e487b7160e01b600052602260045260246000fd5b50919050565b601f821115610f92576000816000526020600020601f850160051c81016020861015610f6f5750805b601f850160051c820191505b81811015610f8e57828155600101610f7b565b5050505b505050565b815167ffffffffffffffff811115610fb157610fb1610c11565b610fc581610fbf8454610f0c565b84610f46565b602080601f831160018114610ffa5760008415610fe25750858301515b600019600386901b1c1916600185901b178555610f8e565b600085815260208120601f198616915b828110156110295788860151825594840194600190910190840161100a565b50858210156110475787850151600019600388901b60f8161c191681555b5050505050600190811b01905550565b8481526080602082015260006110706080830186610d3a565b6040830194909452506060015292915050565b634e487b7160e01b600052603260045260246000fd5b818103818111156110ac576110ac610edd565b92915050565b8181036110bd575050565b6110c78254610f0c565b67ffffffffffffffff8111156110df576110df610c11565b6110ed81610fbf8454610f0c565b6000601f82116001811461112157600083156111095750848201545b600019600385901b1c1916600184901b178455611186565b600085815260209020601f19841690600086815260209020845b8381101561115b578286015482556001958601959091019060200161113b565b50858310156111795781850154600019600388901b60f8161c191681555b50505060018360011b0184555b5050505050565b634e487b7160e01b600052603160045260246000fdfea26469706673582212207156a636e6534f9068708f782d1e0206bfc41c5c520050eb8969eb2dd8e0938d64736f6c63430008180033",
  "linkReferences": {},
  "deployedLinkReferences": {}
}